{
	"data": {
		"bytecode": {
			"linkReferences": {},
			"object": "60806040523480156200001157600080fd5b5060405162001313380380620013138339818101604052810190620000379190620000e8565b806000806101000a81548173ffffffffffffffffffffffffffffffffffffffff021916908373ffffffffffffffffffffffffffffffffffffffff160217905550506200011a565b600080fd5b600073ffffffffffffffffffffffffffffffffffffffff82169050919050565b6000620000b08262000083565b9050919050565b620000c281620000a3565b8114620000ce57600080fd5b50565b600081519050620000e281620000b7565b92915050565b6000602082840312156200010157620001006200007e565b5b60006200011184828501620000d1565b91505092915050565b6111e9806200012a6000396000f3fe608060405234801561001057600080fd5b506004361061007d5760003560e01c80633ef62b661161005b5780633ef62b66146100d65780637aa1216c146100f2578063bf6df7b51461010e578063d5baaf881461012a5761007d565b80631004c78a146100825780631237ad7b1461009e5780632c1b1eea146100ba575b600080fd5b61009c60048036038101906100979190610bf0565b610146565b005b6100b860048036038101906100b39190610caa565b61028a565b005b6100d460048036038101906100cf9190610cea565b61044a565b005b6100f060048036038101906100eb9190610caa565b610556565b005b61010c60048036038101906101079190610d51565b6106d9565b005b61012860048036038101906101239190610de8565b610826565b005b610144600480360381019061013f9190610e75565b610936565b005b600260003373ffffffffffffffffffffffffffffffffffffffff1673ffffffffffffffffffffffffffffffffffffffff16815260200190815260200160002060010160009054906101000a900460ff166101d5576040517f08c379a00000000000000000000000000000000000000000000000000000000081526004016101cc90610f2e565b60405180910390fd5b60006001826040516101e79190610fbf565b908152602001604051809103902060009054906101000a900473ffffffffffffffffffffffffffffffffffffffff1690508073ffffffffffffffffffffffffffffffffffffffff1663bbee631184336040518363ffffffff1660e01b8152600401610253929190610ff4565b600060405180830381600087803b15801561026d57600080fd5b505af1158015610281573d6000803e3d6000fd5b50505050505050565b60008054906101000a900473ffffffffffffffffffffffffffffffffffffffff1673ffffffffffffffffffffffffffffffffffffffff163373ffffffffffffffffffffffffffffffffffffffff1614610318576040517f08c379a000000000000000000000000000000000000000000000000000000000815260040161030f90610f2e565b60405180910390fd5b600260008373ffffffffffffffffffffffffffffffffffffffff1673ffffffffffffffffffffffffffffffffffffffff16815260200190815260200160002060000154811461039c576040517f08c379a000000000000000000000000000000000000000000000000000000000815260040161039390611069565b60405180910390fd5b6000600260008473ffffffffffffffffffffffffffffffffffffffff1673ffffffffffffffffffffffffffffffffffffffff16815260200190815260200160002060010160006101000a81548160ff021916908315150217905550808273ffffffffffffffffffffffffffffffffffffffff167f689e8551d09cbfd7fd364ffdf89628af1bc1b631c6911c94660713b3f50a8ae54260405161043e9190611089565b60405180910390a35050565b600260003373ffffffffffffffffffffffffffffffffffffffff1673ffffffffffffffffffffffffffffffffffffffff16815260200190815260200160002060010160009054906101000a900460ff166104d9576040517f08c379a00000000000000000000000000000000000000000000000000000000081526004016104d090610f2e565b60405180910390fd5b60008490508073ffffffffffffffffffffffffffffffffffffffff16633dcc0835858585336040518563ffffffff1660e01b815260040161051d94939291906110a4565b600060405180830381600087803b15801561053757600080fd5b505af115801561054b573d6000803e3d6000fd5b505050505050505050565b60008054906101000a900473ffffffffffffffffffffffffffffffffffffffff1673ffffffffffffffffffffffffffffffffffffffff163373ffffffffffffffffffffffffffffffffffffffff16146105e4576040517f08c379a00000000000000000000000000000000000000000000000000000000081526004016105db90610f2e565b60405180910390fd5b80600260008473ffffffffffffffffffffffffffffffffffffffff1673ffffffffffffffffffffffffffffffffffffffff168152602001908152602001600020600001819055506001600260008473ffffffffffffffffffffffffffffffffffffffff1673ffffffffffffffffffffffffffffffffffffffff16815260200190815260200160002060010160006101000a81548160ff021916908315150217905550808273ffffffffffffffffffffffffffffffffffffffff167fe52d4bcba300072363266781343b190c67680f1eb0f79ceb34922788645f9706426040516106cd9190611089565b60405180910390a35050565b600260003373ffffffffffffffffffffffffffffffffffffffff1673ffffffffffffffffffffffffffffffffffffffff16815260200190815260200160002060010160009054906101000a900460ff16610768576040517f08c379a000000000000000000000000000000000000000000000000000000000815260040161075f90610f2e565b60405180910390fd5b600060018260405161077a9190610fbf565b908152602001604051809103902060009054906101000a900473ffffffffffffffffffffffffffffffffffffffff1690508073ffffffffffffffffffffffffffffffffffffffff16635cc2531387878787336040518663ffffffff1660e01b81526004016107ec9594939291906110e9565b600060405180830381600087803b15801561080657600080fd5b505af115801561081a573d6000803e3d6000fd5b50505050505050505050565b600260003373ffffffffffffffffffffffffffffffffffffffff1673ffffffffffffffffffffffffffffffffffffffff16815260200190815260200160002060010160009054906101000a900460ff166108b5576040517f08c379a00000000000000000000000000000000000000000000000000000000081526004016108ac90610f2e565b60405180910390fd5b60008690508073ffffffffffffffffffffffffffffffffffffffff1663fd94e0eb87878787876040518663ffffffff1660e01b81526004016108fb9594939291906110e9565b600060405180830381600087803b15801561091557600080fd5b505af1158015610929573d6000803e3d6000fd5b5050505050505050505050565b60008054906101000a900473ffffffffffffffffffffffffffffffffffffffff1673ffffffffffffffffffffffffffffffffffffffff163373ffffffffffffffffffffffffffffffffffffffff16146109c4576040517f08c379a00000000000000000000000000000000000000000000000000000000081526004016109bb90610f2e565b60405180910390fd5b816001826040516109d59190610fbf565b908152602001604051809103902060006101000a81548173ffffffffffffffffffffffffffffffffffffffff021916908373ffffffffffffffffffffffffffffffffffffffff1602179055507f5999bd57b9975c6b48305c76e0fa01586f4f27882b4b1f4006d1676a7b6589e4828242604051610a5493929190611175565b60405180910390a15050565b6000604051905090565b600080fd5b600080fd5b6000819050919050565b610a8781610a74565b8114610a9257600080fd5b50565b600081359050610aa481610a7e565b92915050565b600080fd5b600080fd5b6000601f19601f8301169050919050565b7f4e487b7100000000000000000000000000000000000000000000000000000000600052604160045260246000fd5b610afd82610ab4565b810181811067ffffffffffffffff82111715610b1c57610b1b610ac5565b5b80604052505050565b6000610b2f610a60565b9050610b3b8282610af4565b919050565b600067ffffffffffffffff821115610b5b57610b5a610ac5565b5b610b6482610ab4565b9050602081019050919050565b82818337600083830152505050565b6000610b93610b8e84610b40565b610b25565b905082815260208101848484011115610baf57610bae610aaf565b5b610bba848285610b71565b509392505050565b600082601f830112610bd757610bd6610aaa565b5b8135610be7848260208601610b80565b91505092915050565b60008060408385031215610c0757610c06610a6a565b5b6000610c1585828601610a95565b925050602083013567ffffffffffffffff811115610c3657610c35610a6f565b5b610c4285828601610bc2565b9150509250929050565b600073ffffffffffffffffffffffffffffffffffffffff82169050919050565b6000610c7782610c4c565b9050919050565b610c8781610c6c565b8114610c9257600080fd5b50565b600081359050610ca481610c7e565b92915050565b60008060408385031215610cc157610cc0610a6a565b5b6000610ccf85828601610c95565b9250506020610ce085828601610a95565b9150509250929050565b60008060008060808587031215610d0457610d03610a6a565b5b6000610d1287828801610c95565b9450506020610d2387828801610a95565b9350506040610d3487828801610a95565b9250506060610d4587828801610a95565b91505092959194509250565b600080600080600060a08688031215610d6d57610d6c610a6a565b5b6000610d7b88828901610a95565b9550506020610d8c88828901610a95565b9450506040610d9d88828901610a95565b9350506060610dae88828901610a95565b925050608086013567ffffffffffffffff811115610dcf57610dce610a6f565b5b610ddb88828901610bc2565b9150509295509295909350565b60008060008060008060c08789031215610e0557610e04610a6a565b5b6000610e1389828a01610c95565b9650506020610e2489828a01610a95565b9550506040610e3589828a01610a95565b9450506060610e4689828a01610a95565b9350506080610e5789828a01610a95565b92505060a0610e6889828a01610c95565b9150509295509295509295565b60008060408385031215610e8c57610e8b610a6a565b5b6000610e9a85828601610c95565b925050602083013567ffffffffffffffff811115610ebb57610eba610a6f565b5b610ec785828601610bc2565b9150509250929050565b600082825260208201905092915050565b7f556e617574686f72697a65642100000000000000000000000000000000000000600082015250565b6000610f18600d83610ed1565b9150610f2382610ee2565b602082019050919050565b60006020820190508181036000830152610f4781610f0b565b9050919050565b600081519050919050565b600081905092915050565b60005b83811015610f82578082015181840152602081019050610f67565b60008484015250505050565b6000610f9982610f4e565b610fa38185610f59565b9350610fb3818560208601610f64565b80840191505092915050565b6000610fcb8284610f8e565b915081905092915050565b610fdf81610a74565b82525050565b610fee81610c6c565b82525050565b60006040820190506110096000830185610fd6565b6110166020830184610fe5565b9392505050565b7f57726f6e6720496e73706563746f722049440000000000000000000000000000600082015250565b6000611053601283610ed1565b915061105e8261101d565b602082019050919050565b6000602082019050818103600083015261108281611046565b9050919050565b600060208201905061109e6000830184610fd6565b92915050565b60006080820190506110b96000830187610fd6565b6110c66020830186610fd6565b6110d36040830185610fd6565b6110e06060830184610fe5565b95945050505050565b600060a0820190506110fe6000830188610fd6565b61110b6020830187610fd6565b6111186040830186610fd6565b6111256060830185610fd6565b6111326080830184610fe5565b9695505050505050565b600061114782610f4e565b6111518185610ed1565b9350611161818560208601610f64565b61116a81610ab4565b840191505092915050565b600060608201905061118a6000830186610fe5565b818103602083015261119c818561113c565b90506111ab6040830184610fd6565b94935050505056fea2646970667358221220b9f24d448744e272ebb02ff695fb4271093f771bbdd215a7ce161e79877b4daf64736f6c63430008120033",
			"opcodes": "PUSH1 0x80 PUSH1 0x40 MSTORE CALLVALUE DUP1 ISZERO PUSH3 0x11 JUMPI PUSH1 0x0 DUP1 REVERT JUMPDEST POP PUSH1 0x40 MLOAD PUSH3 0x1313 CODESIZE SUB DUP1 PUSH3 0x1313 DUP4 CODECOPY DUP2 DUP2 ADD PUSH1 0x40 MSTORE DUP2 ADD SWAP1 PUSH3 0x37 SWAP2 SWAP1 PUSH3 0xE8 JUMP JUMPDEST DUP1 PUSH1 0x0 DUP1 PUSH2 0x100 EXP DUP2 SLOAD DUP2 PUSH20 0xFFFFFFFFFFFFFFFFFFFFFFFFFFFFFFFFFFFFFFFF MUL NOT AND SWAP1 DUP4 PUSH20 0xFFFFFFFFFFFFFFFFFFFFFFFFFFFFFFFFFFFFFFFF AND MUL OR SWAP1 SSTORE POP POP PUSH3 0x11A JUMP JUMPDEST PUSH1 0x0 DUP1 REVERT JUMPDEST PUSH1 0x0 PUSH20 0xFFFFFFFFFFFFFFFFFFFFFFFFFFFFFFFFFFFFFFFF DUP3 AND SWAP1 POP SWAP2 SWAP1 POP JUMP JUMPDEST PUSH1 0x0 PUSH3 0xB0 DUP3 PUSH3 0x83 JUMP JUMPDEST SWAP1 POP SWAP2 SWAP1 POP JUMP JUMPDEST PUSH3 0xC2 DUP2 PUSH3 0xA3 JUMP JUMPDEST DUP2 EQ PUSH3 0xCE JUMPI PUSH1 0x0 DUP1 REVERT JUMPDEST POP JUMP JUMPDEST PUSH1 0x0 DUP2 MLOAD SWAP1 POP PUSH3 0xE2 DUP2 PUSH3 0xB7 JUMP JUMPDEST SWAP3 SWAP2 POP POP JUMP JUMPDEST PUSH1 0x0 PUSH1 0x20 DUP3 DUP5 SUB SLT ISZERO PUSH3 0x101 JUMPI PUSH3 0x100 PUSH3 0x7E JUMP JUMPDEST JUMPDEST PUSH1 0x0 PUSH3 0x111 DUP5 DUP3 DUP6 ADD PUSH3 0xD1 JUMP JUMPDEST SWAP2 POP POP SWAP3 SWAP2 POP POP JUMP JUMPDEST PUSH2 0x11E9 DUP1 PUSH3 0x12A PUSH1 0x0 CODECOPY PUSH1 0x0 RETURN INVALID PUSH1 0x80 PUSH1 0x40 MSTORE CALLVALUE DUP1 ISZERO PUSH2 0x10 JUMPI PUSH1 0x0 DUP1 REVERT JUMPDEST POP PUSH1 0x4 CALLDATASIZE LT PUSH2 0x7D JUMPI PUSH1 0x0 CALLDATALOAD PUSH1 0xE0 SHR DUP1 PUSH4 0x3EF62B66 GT PUSH2 0x5B JUMPI DUP1 PUSH4 0x3EF62B66 EQ PUSH2 0xD6 JUMPI DUP1 PUSH4 0x7AA1216C EQ PUSH2 0xF2 JUMPI DUP1 PUSH4 0xBF6DF7B5 EQ PUSH2 0x10E JUMPI DUP1 PUSH4 0xD5BAAF88 EQ PUSH2 0x12A JUMPI PUSH2 0x7D JUMP JUMPDEST DUP1 PUSH4 0x1004C78A EQ PUSH2 0x82 JUMPI DUP1 PUSH4 0x1237AD7B EQ PUSH2 0x9E JUMPI DUP1 PUSH4 0x2C1B1EEA EQ PUSH2 0xBA JUMPI JUMPDEST PUSH1 0x0 DUP1 REVERT JUMPDEST PUSH2 0x9C PUSH1 0x4 DUP1 CALLDATASIZE SUB DUP2 ADD SWAP1 PUSH2 0x97 SWAP2 SWAP1 PUSH2 0xBF0 JUMP JUMPDEST PUSH2 0x146 JUMP JUMPDEST STOP JUMPDEST PUSH2 0xB8 PUSH1 0x4 DUP1 CALLDATASIZE SUB DUP2 ADD SWAP1 PUSH2 0xB3 SWAP2 SWAP1 PUSH2 0xCAA JUMP JUMPDEST PUSH2 0x28A JUMP JUMPDEST STOP JUMPDEST PUSH2 0xD4 PUSH1 0x4 DUP1 CALLDATASIZE SUB DUP2 ADD SWAP1 PUSH2 0xCF SWAP2 SWAP1 PUSH2 0xCEA JUMP JUMPDEST PUSH2 0x44A JUMP JUMPDEST STOP JUMPDEST PUSH2 0xF0 PUSH1 0x4 DUP1 CALLDATASIZE SUB DUP2 ADD SWAP1 PUSH2 0xEB SWAP2 SWAP1 PUSH2 0xCAA JUMP JUMPDEST PUSH2 0x556 JUMP JUMPDEST STOP JUMPDEST PUSH2 0x10C PUSH1 0x4 DUP1 CALLDATASIZE SUB DUP2 ADD SWAP1 PUSH2 0x107 SWAP2 SWAP1 PUSH2 0xD51 JUMP JUMPDEST PUSH2 0x6D9 JUMP JUMPDEST STOP JUMPDEST PUSH2 0x128 PUSH1 0x4 DUP1 CALLDATASIZE SUB DUP2 ADD SWAP1 PUSH2 0x123 SWAP2 SWAP1 PUSH2 0xDE8 JUMP JUMPDEST PUSH2 0x826 JUMP JUMPDEST STOP JUMPDEST PUSH2 0x144 PUSH1 0x4 DUP1 CALLDATASIZE SUB DUP2 ADD SWAP1 PUSH2 0x13F SWAP2 SWAP1 PUSH2 0xE75 JUMP JUMPDEST PUSH2 0x936 JUMP JUMPDEST STOP JUMPDEST PUSH1 0x2 PUSH1 0x0 CALLER PUSH20 0xFFFFFFFFFFFFFFFFFFFFFFFFFFFFFFFFFFFFFFFF AND PUSH20 0xFFFFFFFFFFFFFFFFFFFFFFFFFFFFFFFFFFFFFFFF AND DUP2 MSTORE PUSH1 0x20 ADD SWAP1 DUP2 MSTORE PUSH1 0x20 ADD PUSH1 0x0 KECCAK256 PUSH1 0x1 ADD PUSH1 0x0 SWAP1 SLOAD SWAP1 PUSH2 0x100 EXP SWAP1 DIV PUSH1 0xFF AND PUSH2 0x1D5 JUMPI PUSH1 0x40 MLOAD PUSH32 0x8C379A000000000000000000000000000000000000000000000000000000000 DUP2 MSTORE PUSH1 0x4 ADD PUSH2 0x1CC SWAP1 PUSH2 0xF2E JUMP JUMPDEST PUSH1 0x40 MLOAD DUP1 SWAP2 SUB SWAP1 REVERT JUMPDEST PUSH1 0x0 PUSH1 0x1 DUP3 PUSH1 0x40 MLOAD PUSH2 0x1E7 SWAP2 SWAP1 PUSH2 0xFBF JUMP JUMPDEST SWAP1 DUP2 MSTORE PUSH1 0x20 ADD PUSH1 0x40 MLOAD DUP1 SWAP2 SUB SWAP1 KECCAK256 PUSH1 0x0 SWAP1 SLOAD SWAP1 PUSH2 0x100 EXP SWAP1 DIV PUSH20 0xFFFFFFFFFFFFFFFFFFFFFFFFFFFFFFFFFFFFFFFF AND SWAP1 POP DUP1 PUSH20 0xFFFFFFFFFFFFFFFFFFFFFFFFFFFFFFFFFFFFFFFF AND PUSH4 0xBBEE6311 DUP5 CALLER PUSH1 0x40 MLOAD DUP4 PUSH4 0xFFFFFFFF AND PUSH1 0xE0 SHL DUP2 MSTORE PUSH1 0x4 ADD PUSH2 0x253 SWAP3 SWAP2 SWAP1 PUSH2 0xFF4 JUMP JUMPDEST PUSH1 0x0 PUSH1 0x40 MLOAD DUP1 DUP4 SUB DUP2 PUSH1 0x0 DUP8 DUP1 EXTCODESIZE ISZERO DUP1 ISZERO PUSH2 0x26D JUMPI PUSH1 0x0 DUP1 REVERT JUMPDEST POP GAS CALL ISZERO DUP1 ISZERO PUSH2 0x281 JUMPI RETURNDATASIZE PUSH1 0x0 DUP1 RETURNDATACOPY RETURNDATASIZE PUSH1 0x0 REVERT JUMPDEST POP POP POP POP POP POP POP JUMP JUMPDEST PUSH1 0x0 DUP1 SLOAD SWAP1 PUSH2 0x100 EXP SWAP1 DIV PUSH20 0xFFFFFFFFFFFFFFFFFFFFFFFFFFFFFFFFFFFFFFFF AND PUSH20 0xFFFFFFFFFFFFFFFFFFFFFFFFFFFFFFFFFFFFFFFF AND CALLER PUSH20 0xFFFFFFFFFFFFFFFFFFFFFFFFFFFFFFFFFFFFFFFF AND EQ PUSH2 0x318 JUMPI PUSH1 0x40 MLOAD PUSH32 0x8C379A000000000000000000000000000000000000000000000000000000000 DUP2 MSTORE PUSH1 0x4 ADD PUSH2 0x30F SWAP1 PUSH2 0xF2E JUMP JUMPDEST PUSH1 0x40 MLOAD DUP1 SWAP2 SUB SWAP1 REVERT JUMPDEST PUSH1 0x2 PUSH1 0x0 DUP4 PUSH20 0xFFFFFFFFFFFFFFFFFFFFFFFFFFFFFFFFFFFFFFFF AND PUSH20 0xFFFFFFFFFFFFFFFFFFFFFFFFFFFFFFFFFFFFFFFF AND DUP2 MSTORE PUSH1 0x20 ADD SWAP1 DUP2 MSTORE PUSH1 0x20 ADD PUSH1 0x0 KECCAK256 PUSH1 0x0 ADD SLOAD DUP2 EQ PUSH2 0x39C JUMPI PUSH1 0x40 MLOAD PUSH32 0x8C379A000000000000000000000000000000000000000000000000000000000 DUP2 MSTORE PUSH1 0x4 ADD PUSH2 0x393 SWAP1 PUSH2 0x1069 JUMP JUMPDEST PUSH1 0x40 MLOAD DUP1 SWAP2 SUB SWAP1 REVERT JUMPDEST PUSH1 0x0 PUSH1 0x2 PUSH1 0x0 DUP5 PUSH20 0xFFFFFFFFFFFFFFFFFFFFFFFFFFFFFFFFFFFFFFFF AND PUSH20 0xFFFFFFFFFFFFFFFFFFFFFFFFFFFFFFFFFFFFFFFF AND DUP2 MSTORE PUSH1 0x20 ADD SWAP1 DUP2 MSTORE PUSH1 0x20 ADD PUSH1 0x0 KECCAK256 PUSH1 0x1 ADD PUSH1 0x0 PUSH2 0x100 EXP DUP2 SLOAD DUP2 PUSH1 0xFF MUL NOT AND SWAP1 DUP4 ISZERO ISZERO MUL OR SWAP1 SSTORE POP DUP1 DUP3 PUSH20 0xFFFFFFFFFFFFFFFFFFFFFFFFFFFFFFFFFFFFFFFF AND PUSH32 0x689E8551D09CBFD7FD364FFDF89628AF1BC1B631C6911C94660713B3F50A8AE5 TIMESTAMP PUSH1 0x40 MLOAD PUSH2 0x43E SWAP2 SWAP1 PUSH2 0x1089 JUMP JUMPDEST PUSH1 0x40 MLOAD DUP1 SWAP2 SUB SWAP1 LOG3 POP POP JUMP JUMPDEST PUSH1 0x2 PUSH1 0x0 CALLER PUSH20 0xFFFFFFFFFFFFFFFFFFFFFFFFFFFFFFFFFFFFFFFF AND PUSH20 0xFFFFFFFFFFFFFFFFFFFFFFFFFFFFFFFFFFFFFFFF AND DUP2 MSTORE PUSH1 0x20 ADD SWAP1 DUP2 MSTORE PUSH1 0x20 ADD PUSH1 0x0 KECCAK256 PUSH1 0x1 ADD PUSH1 0x0 SWAP1 SLOAD SWAP1 PUSH2 0x100 EXP SWAP1 DIV PUSH1 0xFF AND PUSH2 0x4D9 JUMPI PUSH1 0x40 MLOAD PUSH32 0x8C379A000000000000000000000000000000000000000000000000000000000 DUP2 MSTORE PUSH1 0x4 ADD PUSH2 0x4D0 SWAP1 PUSH2 0xF2E JUMP JUMPDEST PUSH1 0x40 MLOAD DUP1 SWAP2 SUB SWAP1 REVERT JUMPDEST PUSH1 0x0 DUP5 SWAP1 POP DUP1 PUSH20 0xFFFFFFFFFFFFFFFFFFFFFFFFFFFFFFFFFFFFFFFF AND PUSH4 0x3DCC0835 DUP6 DUP6 DUP6 CALLER PUSH1 0x40 MLOAD DUP6 PUSH4 0xFFFFFFFF AND PUSH1 0xE0 SHL DUP2 MSTORE PUSH1 0x4 ADD PUSH2 0x51D SWAP5 SWAP4 SWAP3 SWAP2 SWAP1 PUSH2 0x10A4 JUMP JUMPDEST PUSH1 0x0 PUSH1 0x40 MLOAD DUP1 DUP4 SUB DUP2 PUSH1 0x0 DUP8 DUP1 EXTCODESIZE ISZERO DUP1 ISZERO PUSH2 0x537 JUMPI PUSH1 0x0 DUP1 REVERT JUMPDEST POP GAS CALL ISZERO DUP1 ISZERO PUSH2 0x54B JUMPI RETURNDATASIZE PUSH1 0x0 DUP1 RETURNDATACOPY RETURNDATASIZE PUSH1 0x0 REVERT JUMPDEST POP POP POP POP POP POP POP POP POP JUMP JUMPDEST PUSH1 0x0 DUP1 SLOAD SWAP1 PUSH2 0x100 EXP SWAP1 DIV PUSH20 0xFFFFFFFFFFFFFFFFFFFFFFFFFFFFFFFFFFFFFFFF AND PUSH20 0xFFFFFFFFFFFFFFFFFFFFFFFFFFFFFFFFFFFFFFFF AND CALLER PUSH20 0xFFFFFFFFFFFFFFFFFFFFFFFFFFFFFFFFFFFFFFFF AND EQ PUSH2 0x5E4 JUMPI PUSH1 0x40 MLOAD PUSH32 0x8C379A000000000000000000000000000000000000000000000000000000000 DUP2 MSTORE PUSH1 0x4 ADD PUSH2 0x5DB SWAP1 PUSH2 0xF2E JUMP JUMPDEST PUSH1 0x40 MLOAD DUP1 SWAP2 SUB SWAP1 REVERT JUMPDEST DUP1 PUSH1 0x2 PUSH1 0x0 DUP5 PUSH20 0xFFFFFFFFFFFFFFFFFFFFFFFFFFFFFFFFFFFFFFFF AND PUSH20 0xFFFFFFFFFFFFFFFFFFFFFFFFFFFFFFFFFFFFFFFF AND DUP2 MSTORE PUSH1 0x20 ADD SWAP1 DUP2 MSTORE PUSH1 0x20 ADD PUSH1 0x0 KECCAK256 PUSH1 0x0 ADD DUP2 SWAP1 SSTORE POP PUSH1 0x1 PUSH1 0x2 PUSH1 0x0 DUP5 PUSH20 0xFFFFFFFFFFFFFFFFFFFFFFFFFFFFFFFFFFFFFFFF AND PUSH20 0xFFFFFFFFFFFFFFFFFFFFFFFFFFFFFFFFFFFFFFFF AND DUP2 MSTORE PUSH1 0x20 ADD SWAP1 DUP2 MSTORE PUSH1 0x20 ADD PUSH1 0x0 KECCAK256 PUSH1 0x1 ADD PUSH1 0x0 PUSH2 0x100 EXP DUP2 SLOAD DUP2 PUSH1 0xFF MUL NOT AND SWAP1 DUP4 ISZERO ISZERO MUL OR SWAP1 SSTORE POP DUP1 DUP3 PUSH20 0xFFFFFFFFFFFFFFFFFFFFFFFFFFFFFFFFFFFFFFFF AND PUSH32 0xE52D4BCBA300072363266781343B190C67680F1EB0F79CEB34922788645F9706 TIMESTAMP PUSH1 0x40 MLOAD PUSH2 0x6CD SWAP2 SWAP1 PUSH2 0x1089 JUMP JUMPDEST PUSH1 0x40 MLOAD DUP1 SWAP2 SUB SWAP1 LOG3 POP POP JUMP JUMPDEST PUSH1 0x2 PUSH1 0x0 CALLER PUSH20 0xFFFFFFFFFFFFFFFFFFFFFFFFFFFFFFFFFFFFFFFF AND PUSH20 0xFFFFFFFFFFFFFFFFFFFFFFFFFFFFFFFFFFFFFFFF AND DUP2 MSTORE PUSH1 0x20 ADD SWAP1 DUP2 MSTORE PUSH1 0x20 ADD PUSH1 0x0 KECCAK256 PUSH1 0x1 ADD PUSH1 0x0 SWAP1 SLOAD SWAP1 PUSH2 0x100 EXP SWAP1 DIV PUSH1 0xFF AND PUSH2 0x768 JUMPI PUSH1 0x40 MLOAD PUSH32 0x8C379A000000000000000000000000000000000000000000000000000000000 DUP2 MSTORE PUSH1 0x4 ADD PUSH2 0x75F SWAP1 PUSH2 0xF2E JUMP JUMPDEST PUSH1 0x40 MLOAD DUP1 SWAP2 SUB SWAP1 REVERT JUMPDEST PUSH1 0x0 PUSH1 0x1 DUP3 PUSH1 0x40 MLOAD PUSH2 0x77A SWAP2 SWAP1 PUSH2 0xFBF JUMP JUMPDEST SWAP1 DUP2 MSTORE PUSH1 0x20 ADD PUSH1 0x40 MLOAD DUP1 SWAP2 SUB SWAP1 KECCAK256 PUSH1 0x0 SWAP1 SLOAD SWAP1 PUSH2 0x100 EXP SWAP1 DIV PUSH20 0xFFFFFFFFFFFFFFFFFFFFFFFFFFFFFFFFFFFFFFFF AND SWAP1 POP DUP1 PUSH20 0xFFFFFFFFFFFFFFFFFFFFFFFFFFFFFFFFFFFFFFFF AND PUSH4 0x5CC25313 DUP8 DUP8 DUP8 DUP8 CALLER PUSH1 0x40 MLOAD DUP7 PUSH4 0xFFFFFFFF AND PUSH1 0xE0 SHL DUP2 MSTORE PUSH1 0x4 ADD PUSH2 0x7EC SWAP6 SWAP5 SWAP4 SWAP3 SWAP2 SWAP1 PUSH2 0x10E9 JUMP JUMPDEST PUSH1 0x0 PUSH1 0x40 MLOAD DUP1 DUP4 SUB DUP2 PUSH1 0x0 DUP8 DUP1 EXTCODESIZE ISZERO DUP1 ISZERO PUSH2 0x806 JUMPI PUSH1 0x0 DUP1 REVERT JUMPDEST POP GAS CALL ISZERO DUP1 ISZERO PUSH2 0x81A JUMPI RETURNDATASIZE PUSH1 0x0 DUP1 RETURNDATACOPY RETURNDATASIZE PUSH1 0x0 REVERT JUMPDEST POP POP POP POP POP POP POP POP POP POP JUMP JUMPDEST PUSH1 0x2 PUSH1 0x0 CALLER PUSH20 0xFFFFFFFFFFFFFFFFFFFFFFFFFFFFFFFFFFFFFFFF AND PUSH20 0xFFFFFFFFFFFFFFFFFFFFFFFFFFFFFFFFFFFFFFFF AND DUP2 MSTORE PUSH1 0x20 ADD SWAP1 DUP2 MSTORE PUSH1 0x20 ADD PUSH1 0x0 KECCAK256 PUSH1 0x1 ADD PUSH1 0x0 SWAP1 SLOAD SWAP1 PUSH2 0x100 EXP SWAP1 DIV PUSH1 0xFF AND PUSH2 0x8B5 JUMPI PUSH1 0x40 MLOAD PUSH32 0x8C379A000000000000000000000000000000000000000000000000000000000 DUP2 MSTORE PUSH1 0x4 ADD PUSH2 0x8AC SWAP1 PUSH2 0xF2E JUMP JUMPDEST PUSH1 0x40 MLOAD DUP1 SWAP2 SUB SWAP1 REVERT JUMPDEST PUSH1 0x0 DUP7 SWAP1 POP DUP1 PUSH20 0xFFFFFFFFFFFFFFFFFFFFFFFFFFFFFFFFFFFFFFFF AND PUSH4 0xFD94E0EB DUP8 DUP8 DUP8 DUP8 DUP8 PUSH1 0x40 MLOAD DUP7 PUSH4 0xFFFFFFFF AND PUSH1 0xE0 SHL DUP2 MSTORE PUSH1 0x4 ADD PUSH2 0x8FB SWAP6 SWAP5 SWAP4 SWAP3 SWAP2 SWAP1 PUSH2 0x10E9 JUMP JUMPDEST PUSH1 0x0 PUSH1 0x40 MLOAD DUP1 DUP4 SUB DUP2 PUSH1 0x0 DUP8 DUP1 EXTCODESIZE ISZERO DUP1 ISZERO PUSH2 0x915 JUMPI PUSH1 0x0 DUP1 REVERT JUMPDEST POP GAS CALL ISZERO DUP1 ISZERO PUSH2 0x929 JUMPI RETURNDATASIZE PUSH1 0x0 DUP1 RETURNDATACOPY RETURNDATASIZE PUSH1 0x0 REVERT JUMPDEST POP POP POP POP POP POP POP POP POP POP POP JUMP JUMPDEST PUSH1 0x0 DUP1 SLOAD SWAP1 PUSH2 0x100 EXP SWAP1 DIV PUSH20 0xFFFFFFFFFFFFFFFFFFFFFFFFFFFFFFFFFFFFFFFF AND PUSH20 0xFFFFFFFFFFFFFFFFFFFFFFFFFFFFFFFFFFFFFFFF AND CALLER PUSH20 0xFFFFFFFFFFFFFFFFFFFFFFFFFFFFFFFFFFFFFFFF AND EQ PUSH2 0x9C4 JUMPI PUSH1 0x40 MLOAD PUSH32 0x8C379A000000000000000000000000000000000000000000000000000000000 DUP2 MSTORE PUSH1 0x4 ADD PUSH2 0x9BB SWAP1 PUSH2 0xF2E JUMP JUMPDEST PUSH1 0x40 MLOAD DUP1 SWAP2 SUB SWAP1 REVERT JUMPDEST DUP2 PUSH1 0x1 DUP3 PUSH1 0x40 MLOAD PUSH2 0x9D5 SWAP2 SWAP1 PUSH2 0xFBF JUMP JUMPDEST SWAP1 DUP2 MSTORE PUSH1 0x20 ADD PUSH1 0x40 MLOAD DUP1 SWAP2 SUB SWAP1 KECCAK256 PUSH1 0x0 PUSH2 0x100 EXP DUP2 SLOAD DUP2 PUSH20 0xFFFFFFFFFFFFFFFFFFFFFFFFFFFFFFFFFFFFFFFF MUL NOT AND SWAP1 DUP4 PUSH20 0xFFFFFFFFFFFFFFFFFFFFFFFFFFFFFFFFFFFFFFFF AND MUL OR SWAP1 SSTORE POP PUSH32 0x5999BD57B9975C6B48305C76E0FA01586F4F27882B4B1F4006D1676A7B6589E4 DUP3 DUP3 TIMESTAMP PUSH1 0x40 MLOAD PUSH2 0xA54 SWAP4 SWAP3 SWAP2 SWAP1 PUSH2 0x1175 JUMP JUMPDEST PUSH1 0x40 MLOAD DUP1 SWAP2 SUB SWAP1 LOG1 POP POP JUMP JUMPDEST PUSH1 0x0 PUSH1 0x40 MLOAD SWAP1 POP SWAP1 JUMP JUMPDEST PUSH1 0x0 DUP1 REVERT JUMPDEST PUSH1 0x0 DUP1 REVERT JUMPDEST PUSH1 0x0 DUP2 SWAP1 POP SWAP2 SWAP1 POP JUMP JUMPDEST PUSH2 0xA87 DUP2 PUSH2 0xA74 JUMP JUMPDEST DUP2 EQ PUSH2 0xA92 JUMPI PUSH1 0x0 DUP1 REVERT JUMPDEST POP JUMP JUMPDEST PUSH1 0x0 DUP2 CALLDATALOAD SWAP1 POP PUSH2 0xAA4 DUP2 PUSH2 0xA7E JUMP JUMPDEST SWAP3 SWAP2 POP POP JUMP JUMPDEST PUSH1 0x0 DUP1 REVERT JUMPDEST PUSH1 0x0 DUP1 REVERT JUMPDEST PUSH1 0x0 PUSH1 0x1F NOT PUSH1 0x1F DUP4 ADD AND SWAP1 POP SWAP2 SWAP1 POP JUMP JUMPDEST PUSH32 0x4E487B7100000000000000000000000000000000000000000000000000000000 PUSH1 0x0 MSTORE PUSH1 0x41 PUSH1 0x4 MSTORE PUSH1 0x24 PUSH1 0x0 REVERT JUMPDEST PUSH2 0xAFD DUP3 PUSH2 0xAB4 JUMP JUMPDEST DUP2 ADD DUP2 DUP2 LT PUSH8 0xFFFFFFFFFFFFFFFF DUP3 GT OR ISZERO PUSH2 0xB1C JUMPI PUSH2 0xB1B PUSH2 0xAC5 JUMP JUMPDEST JUMPDEST DUP1 PUSH1 0x40 MSTORE POP POP POP JUMP JUMPDEST PUSH1 0x0 PUSH2 0xB2F PUSH2 0xA60 JUMP JUMPDEST SWAP1 POP PUSH2 0xB3B DUP3 DUP3 PUSH2 0xAF4 JUMP JUMPDEST SWAP2 SWAP1 POP JUMP JUMPDEST PUSH1 0x0 PUSH8 0xFFFFFFFFFFFFFFFF DUP3 GT ISZERO PUSH2 0xB5B JUMPI PUSH2 0xB5A PUSH2 0xAC5 JUMP JUMPDEST JUMPDEST PUSH2 0xB64 DUP3 PUSH2 0xAB4 JUMP JUMPDEST SWAP1 POP PUSH1 0x20 DUP2 ADD SWAP1 POP SWAP2 SWAP1 POP JUMP JUMPDEST DUP3 DUP2 DUP4 CALLDATACOPY PUSH1 0x0 DUP4 DUP4 ADD MSTORE POP POP POP JUMP JUMPDEST PUSH1 0x0 PUSH2 0xB93 PUSH2 0xB8E DUP5 PUSH2 0xB40 JUMP JUMPDEST PUSH2 0xB25 JUMP JUMPDEST SWAP1 POP DUP3 DUP2 MSTORE PUSH1 0x20 DUP2 ADD DUP5 DUP5 DUP5 ADD GT ISZERO PUSH2 0xBAF JUMPI PUSH2 0xBAE PUSH2 0xAAF JUMP JUMPDEST JUMPDEST PUSH2 0xBBA DUP5 DUP3 DUP6 PUSH2 0xB71 JUMP JUMPDEST POP SWAP4 SWAP3 POP POP POP JUMP JUMPDEST PUSH1 0x0 DUP3 PUSH1 0x1F DUP4 ADD SLT PUSH2 0xBD7 JUMPI PUSH2 0xBD6 PUSH2 0xAAA JUMP JUMPDEST JUMPDEST DUP2 CALLDATALOAD PUSH2 0xBE7 DUP5 DUP3 PUSH1 0x20 DUP7 ADD PUSH2 0xB80 JUMP JUMPDEST SWAP2 POP POP SWAP3 SWAP2 POP POP JUMP JUMPDEST PUSH1 0x0 DUP1 PUSH1 0x40 DUP4 DUP6 SUB SLT ISZERO PUSH2 0xC07 JUMPI PUSH2 0xC06 PUSH2 0xA6A JUMP JUMPDEST JUMPDEST PUSH1 0x0 PUSH2 0xC15 DUP6 DUP3 DUP7 ADD PUSH2 0xA95 JUMP JUMPDEST SWAP3 POP POP PUSH1 0x20 DUP4 ADD CALLDATALOAD PUSH8 0xFFFFFFFFFFFFFFFF DUP2 GT ISZERO PUSH2 0xC36 JUMPI PUSH2 0xC35 PUSH2 0xA6F JUMP JUMPDEST JUMPDEST PUSH2 0xC42 DUP6 DUP3 DUP7 ADD PUSH2 0xBC2 JUMP JUMPDEST SWAP2 POP POP SWAP3 POP SWAP3 SWAP1 POP JUMP JUMPDEST PUSH1 0x0 PUSH20 0xFFFFFFFFFFFFFFFFFFFFFFFFFFFFFFFFFFFFFFFF DUP3 AND SWAP1 POP SWAP2 SWAP1 POP JUMP JUMPDEST PUSH1 0x0 PUSH2 0xC77 DUP3 PUSH2 0xC4C JUMP JUMPDEST SWAP1 POP SWAP2 SWAP1 POP JUMP JUMPDEST PUSH2 0xC87 DUP2 PUSH2 0xC6C JUMP JUMPDEST DUP2 EQ PUSH2 0xC92 JUMPI PUSH1 0x0 DUP1 REVERT JUMPDEST POP JUMP JUMPDEST PUSH1 0x0 DUP2 CALLDATALOAD SWAP1 POP PUSH2 0xCA4 DUP2 PUSH2 0xC7E JUMP JUMPDEST SWAP3 SWAP2 POP POP JUMP JUMPDEST PUSH1 0x0 DUP1 PUSH1 0x40 DUP4 DUP6 SUB SLT ISZERO PUSH2 0xCC1 JUMPI PUSH2 0xCC0 PUSH2 0xA6A JUMP JUMPDEST JUMPDEST PUSH1 0x0 PUSH2 0xCCF DUP6 DUP3 DUP7 ADD PUSH2 0xC95 JUMP JUMPDEST SWAP3 POP POP PUSH1 0x20 PUSH2 0xCE0 DUP6 DUP3 DUP7 ADD PUSH2 0xA95 JUMP JUMPDEST SWAP2 POP POP SWAP3 POP SWAP3 SWAP1 POP JUMP JUMPDEST PUSH1 0x0 DUP1 PUSH1 0x0 DUP1 PUSH1 0x80 DUP6 DUP8 SUB SLT ISZERO PUSH2 0xD04 JUMPI PUSH2 0xD03 PUSH2 0xA6A JUMP JUMPDEST JUMPDEST PUSH1 0x0 PUSH2 0xD12 DUP8 DUP3 DUP9 ADD PUSH2 0xC95 JUMP JUMPDEST SWAP5 POP POP PUSH1 0x20 PUSH2 0xD23 DUP8 DUP3 DUP9 ADD PUSH2 0xA95 JUMP JUMPDEST SWAP4 POP POP PUSH1 0x40 PUSH2 0xD34 DUP8 DUP3 DUP9 ADD PUSH2 0xA95 JUMP JUMPDEST SWAP3 POP POP PUSH1 0x60 PUSH2 0xD45 DUP8 DUP3 DUP9 ADD PUSH2 0xA95 JUMP JUMPDEST SWAP2 POP POP SWAP3 SWAP6 SWAP2 SWAP5 POP SWAP3 POP JUMP JUMPDEST PUSH1 0x0 DUP1 PUSH1 0x0 DUP1 PUSH1 0x0 PUSH1 0xA0 DUP7 DUP9 SUB SLT ISZERO PUSH2 0xD6D JUMPI PUSH2 0xD6C PUSH2 0xA6A JUMP JUMPDEST JUMPDEST PUSH1 0x0 PUSH2 0xD7B DUP9 DUP3 DUP10 ADD PUSH2 0xA95 JUMP JUMPDEST SWAP6 POP POP PUSH1 0x20 PUSH2 0xD8C DUP9 DUP3 DUP10 ADD PUSH2 0xA95 JUMP JUMPDEST SWAP5 POP POP PUSH1 0x40 PUSH2 0xD9D DUP9 DUP3 DUP10 ADD PUSH2 0xA95 JUMP JUMPDEST SWAP4 POP POP PUSH1 0x60 PUSH2 0xDAE DUP9 DUP3 DUP10 ADD PUSH2 0xA95 JUMP JUMPDEST SWAP3 POP POP PUSH1 0x80 DUP7 ADD CALLDATALOAD PUSH8 0xFFFFFFFFFFFFFFFF DUP2 GT ISZERO PUSH2 0xDCF JUMPI PUSH2 0xDCE PUSH2 0xA6F JUMP JUMPDEST JUMPDEST PUSH2 0xDDB DUP9 DUP3 DUP10 ADD PUSH2 0xBC2 JUMP JUMPDEST SWAP2 POP POP SWAP3 SWAP6 POP SWAP3 SWAP6 SWAP1 SWAP4 POP JUMP JUMPDEST PUSH1 0x0 DUP1 PUSH1 0x0 DUP1 PUSH1 0x0 DUP1 PUSH1 0xC0 DUP8 DUP10 SUB SLT ISZERO PUSH2 0xE05 JUMPI PUSH2 0xE04 PUSH2 0xA6A JUMP JUMPDEST JUMPDEST PUSH1 0x0 PUSH2 0xE13 DUP10 DUP3 DUP11 ADD PUSH2 0xC95 JUMP JUMPDEST SWAP7 POP POP PUSH1 0x20 PUSH2 0xE24 DUP10 DUP3 DUP11 ADD PUSH2 0xA95 JUMP JUMPDEST SWAP6 POP POP PUSH1 0x40 PUSH2 0xE35 DUP10 DUP3 DUP11 ADD PUSH2 0xA95 JUMP JUMPDEST SWAP5 POP POP PUSH1 0x60 PUSH2 0xE46 DUP10 DUP3 DUP11 ADD PUSH2 0xA95 JUMP JUMPDEST SWAP4 POP POP PUSH1 0x80 PUSH2 0xE57 DUP10 DUP3 DUP11 ADD PUSH2 0xA95 JUMP JUMPDEST SWAP3 POP POP PUSH1 0xA0 PUSH2 0xE68 DUP10 DUP3 DUP11 ADD PUSH2 0xC95 JUMP JUMPDEST SWAP2 POP POP SWAP3 SWAP6 POP SWAP3 SWAP6 POP SWAP3 SWAP6 JUMP JUMPDEST PUSH1 0x0 DUP1 PUSH1 0x40 DUP4 DUP6 SUB SLT ISZERO PUSH2 0xE8C JUMPI PUSH2 0xE8B PUSH2 0xA6A JUMP JUMPDEST JUMPDEST PUSH1 0x0 PUSH2 0xE9A DUP6 DUP3 DUP7 ADD PUSH2 0xC95 JUMP JUMPDEST SWAP3 POP POP PUSH1 0x20 DUP4 ADD CALLDATALOAD PUSH8 0xFFFFFFFFFFFFFFFF DUP2 GT ISZERO PUSH2 0xEBB JUMPI PUSH2 0xEBA PUSH2 0xA6F JUMP JUMPDEST JUMPDEST PUSH2 0xEC7 DUP6 DUP3 DUP7 ADD PUSH2 0xBC2 JUMP JUMPDEST SWAP2 POP POP SWAP3 POP SWAP3 SWAP1 POP JUMP JUMPDEST PUSH1 0x0 DUP3 DUP3 MSTORE PUSH1 0x20 DUP3 ADD SWAP1 POP SWAP3 SWAP2 POP POP JUMP JUMPDEST PUSH32 0x556E617574686F72697A65642100000000000000000000000000000000000000 PUSH1 0x0 DUP3 ADD MSTORE POP JUMP JUMPDEST PUSH1 0x0 PUSH2 0xF18 PUSH1 0xD DUP4 PUSH2 0xED1 JUMP JUMPDEST SWAP2 POP PUSH2 0xF23 DUP3 PUSH2 0xEE2 JUMP JUMPDEST PUSH1 0x20 DUP3 ADD SWAP1 POP SWAP2 SWAP1 POP JUMP JUMPDEST PUSH1 0x0 PUSH1 0x20 DUP3 ADD SWAP1 POP DUP2 DUP2 SUB PUSH1 0x0 DUP4 ADD MSTORE PUSH2 0xF47 DUP2 PUSH2 0xF0B JUMP JUMPDEST SWAP1 POP SWAP2 SWAP1 POP JUMP JUMPDEST PUSH1 0x0 DUP2 MLOAD SWAP1 POP SWAP2 SWAP1 POP JUMP JUMPDEST PUSH1 0x0 DUP2 SWAP1 POP SWAP3 SWAP2 POP POP JUMP JUMPDEST PUSH1 0x0 JUMPDEST DUP4 DUP2 LT ISZERO PUSH2 0xF82 JUMPI DUP1 DUP3 ADD MLOAD DUP2 DUP5 ADD MSTORE PUSH1 0x20 DUP2 ADD SWAP1 POP PUSH2 0xF67 JUMP JUMPDEST PUSH1 0x0 DUP5 DUP5 ADD MSTORE POP POP POP POP JUMP JUMPDEST PUSH1 0x0 PUSH2 0xF99 DUP3 PUSH2 0xF4E JUMP JUMPDEST PUSH2 0xFA3 DUP2 DUP6 PUSH2 0xF59 JUMP JUMPDEST SWAP4 POP PUSH2 0xFB3 DUP2 DUP6 PUSH1 0x20 DUP7 ADD PUSH2 0xF64 JUMP JUMPDEST DUP1 DUP5 ADD SWAP2 POP POP SWAP3 SWAP2 POP POP JUMP JUMPDEST PUSH1 0x0 PUSH2 0xFCB DUP3 DUP5 PUSH2 0xF8E JUMP JUMPDEST SWAP2 POP DUP2 SWAP1 POP SWAP3 SWAP2 POP POP JUMP JUMPDEST PUSH2 0xFDF DUP2 PUSH2 0xA74 JUMP JUMPDEST DUP3 MSTORE POP POP JUMP JUMPDEST PUSH2 0xFEE DUP2 PUSH2 0xC6C JUMP JUMPDEST DUP3 MSTORE POP POP JUMP JUMPDEST PUSH1 0x0 PUSH1 0x40 DUP3 ADD SWAP1 POP PUSH2 0x1009 PUSH1 0x0 DUP4 ADD DUP6 PUSH2 0xFD6 JUMP JUMPDEST PUSH2 0x1016 PUSH1 0x20 DUP4 ADD DUP5 PUSH2 0xFE5 JUMP JUMPDEST SWAP4 SWAP3 POP POP POP JUMP JUMPDEST PUSH32 0x57726F6E6720496E73706563746F722049440000000000000000000000000000 PUSH1 0x0 DUP3 ADD MSTORE POP JUMP JUMPDEST PUSH1 0x0 PUSH2 0x1053 PUSH1 0x12 DUP4 PUSH2 0xED1 JUMP JUMPDEST SWAP2 POP PUSH2 0x105E DUP3 PUSH2 0x101D JUMP JUMPDEST PUSH1 0x20 DUP3 ADD SWAP1 POP SWAP2 SWAP1 POP JUMP JUMPDEST PUSH1 0x0 PUSH1 0x20 DUP3 ADD SWAP1 POP DUP2 DUP2 SUB PUSH1 0x0 DUP4 ADD MSTORE PUSH2 0x1082 DUP2 PUSH2 0x1046 JUMP JUMPDEST SWAP1 POP SWAP2 SWAP1 POP JUMP JUMPDEST PUSH1 0x0 PUSH1 0x20 DUP3 ADD SWAP1 POP PUSH2 0x109E PUSH1 0x0 DUP4 ADD DUP5 PUSH2 0xFD6 JUMP JUMPDEST SWAP3 SWAP2 POP POP JUMP JUMPDEST PUSH1 0x0 PUSH1 0x80 DUP3 ADD SWAP1 POP PUSH2 0x10B9 PUSH1 0x0 DUP4 ADD DUP8 PUSH2 0xFD6 JUMP JUMPDEST PUSH2 0x10C6 PUSH1 0x20 DUP4 ADD DUP7 PUSH2 0xFD6 JUMP JUMPDEST PUSH2 0x10D3 PUSH1 0x40 DUP4 ADD DUP6 PUSH2 0xFD6 JUMP JUMPDEST PUSH2 0x10E0 PUSH1 0x60 DUP4 ADD DUP5 PUSH2 0xFE5 JUMP JUMPDEST SWAP6 SWAP5 POP POP POP POP POP JUMP JUMPDEST PUSH1 0x0 PUSH1 0xA0 DUP3 ADD SWAP1 POP PUSH2 0x10FE PUSH1 0x0 DUP4 ADD DUP9 PUSH2 0xFD6 JUMP JUMPDEST PUSH2 0x110B PUSH1 0x20 DUP4 ADD DUP8 PUSH2 0xFD6 JUMP JUMPDEST PUSH2 0x1118 PUSH1 0x40 DUP4 ADD DUP7 PUSH2 0xFD6 JUMP JUMPDEST PUSH2 0x1125 PUSH1 0x60 DUP4 ADD DUP6 PUSH2 0xFD6 JUMP JUMPDEST PUSH2 0x1132 PUSH1 0x80 DUP4 ADD DUP5 PUSH2 0xFE5 JUMP JUMPDEST SWAP7 SWAP6 POP POP POP POP POP POP JUMP JUMPDEST PUSH1 0x0 PUSH2 0x1147 DUP3 PUSH2 0xF4E JUMP JUMPDEST PUSH2 0x1151 DUP2 DUP6 PUSH2 0xED1 JUMP JUMPDEST SWAP4 POP PUSH2 0x1161 DUP2 DUP6 PUSH1 0x20 DUP7 ADD PUSH2 0xF64 JUMP JUMPDEST PUSH2 0x116A DUP2 PUSH2 0xAB4 JUMP JUMPDEST DUP5 ADD SWAP2 POP POP SWAP3 SWAP2 POP POP JUMP JUMPDEST PUSH1 0x0 PUSH1 0x60 DUP3 ADD SWAP1 POP PUSH2 0x118A PUSH1 0x0 DUP4 ADD DUP7 PUSH2 0xFE5 JUMP JUMPDEST DUP2 DUP2 SUB PUSH1 0x20 DUP4 ADD MSTORE PUSH2 0x119C DUP2 DUP6 PUSH2 0x113C JUMP JUMPDEST SWAP1 POP PUSH2 0x11AB PUSH1 0x40 DUP4 ADD DUP5 PUSH2 0xFD6 JUMP JUMPDEST SWAP5 SWAP4 POP POP POP POP JUMP INVALID LOG2 PUSH5 0x6970667358 0x22 SLT KECCAK256 0xB9 CALLCODE 0x4D PREVRANDAO DUP8 PREVRANDAO 0xE2 PUSH19 0xEBB02FF695FB4271093F771BBDD215A7CE161E PUSH26 0x877B4DAF64736F6C634300081200330000000000000000000000 "
		},
		"gasEstimates": {
			"creation": {
				"codeDepositCost": "917000",
				"executionCost": "infinite",
				"totalCost": "infinite"
			},
			"external": {
				"addLandInspector(address,uint256)": "infinite",
				"addNewProperty(uint256,string)": "infinite",
				"addSocietyBlock(address,string)": "infinite",
				"approveTransferRequest(address,uint256,uint256,uint256,uint256,address)": "infinite",
				"executeReverseCase(address,uint256,uint256,uint256)": "infinite",
				"removeLandInspector(address,uint256)": "infinite",
				"transferNewProperty(uint256,uint256,uint256,uint256,string)": "infinite"
			}
		},
		"methodIdentifiers": {
			"addLandInspector(address,uint256)": "3ef62b66",
			"addNewProperty(uint256,string)": "1004c78a",
			"addSocietyBlock(address,string)": "d5baaf88",
			"approveTransferRequest(address,uint256,uint256,uint256,uint256,address)": "bf6df7b5",
			"executeReverseCase(address,uint256,uint256,uint256)": "2c1b1eea",
			"removeLandInspector(address,uint256)": "1237ad7b",
			"transferNewProperty(uint256,uint256,uint256,uint256,string)": "7aa1216c"
		}
	},
	"abi": [
		{
			"inputs": [
				{
					"internalType": "address",
					"name": "_govermentAuthority",
					"type": "address"
				}
			],
			"stateMutability": "nonpayable",
			"type": "constructor"
		},
		{
			"anonymous": false,
			"inputs": [
				{
					"indexed": true,
					"internalType": "address",
					"name": "LandInspectorWallet",
					"type": "address"
				},
				{
					"indexed": true,
					"internalType": "uint256",
					"name": "ID",
					"type": "uint256"
				},
				{
					"indexed": false,
					"internalType": "uint256",
					"name": "time",
					"type": "uint256"
				}
			],
			"name": "addLandInspectorLogs",
			"type": "event"
		},
		{
			"anonymous": false,
			"inputs": [
				{
					"indexed": false,
					"internalType": "address",
					"name": "ContractAddress",
					"type": "address"
				},
				{
					"indexed": false,
					"internalType": "string",
					"name": "Name",
					"type": "string"
				},
				{
					"indexed": false,
					"internalType": "uint256",
					"name": "time",
					"type": "uint256"
				}
			],
			"name": "addSocietyBlockLogs",
			"type": "event"
		},
		{
			"anonymous": false,
			"inputs": [
				{
					"indexed": true,
					"internalType": "address",
					"name": "LandInspectorWallet",
					"type": "address"
				},
				{
					"indexed": true,
					"internalType": "uint256",
					"name": "ID",
					"type": "uint256"
				},
				{
					"indexed": false,
					"internalType": "uint256",
					"name": "time",
					"type": "uint256"
				}
			],
			"name": "removeLandInspectorLogs",
			"type": "event"
		},
		{
			"inputs": [
				{
					"internalType": "address",
					"name": "_landInspectorWallet",
					"type": "address"
				},
				{
					"internalType": "uint256",
					"name": "_id",
					"type": "uint256"
				}
			],
			"name": "addLandInspector",
			"outputs": [],
			"stateMutability": "nonpayable",
			"type": "function"
		},
		{
			"inputs": [
				{
					"internalType": "uint256",
					"name": "_propertyId",
					"type": "uint256"
				},
				{
					"internalType": "string",
					"name": "_societyName",
					"type": "string"
				}
			],
			"name": "addNewProperty",
			"outputs": [],
			"stateMutability": "nonpayable",
			"type": "function"
		},
		{
			"inputs": [
				{
					"internalType": "address",
					"name": "_contractAddress",
					"type": "address"
				},
				{
					"internalType": "string",
					"name": "_name",
					"type": "string"
				}
			],
			"name": "addSocietyBlock",
			"outputs": [],
			"stateMutability": "nonpayable",
			"type": "function"
		},
		{
			"inputs": [
				{
					"internalType": "address",
					"name": "_societyBlockAddress",
					"type": "address"
				},
				{
					"internalType": "uint256",
					"name": "_propertyId",
					"type": "uint256"
				},
				{
					"internalType": "uint256",
					"name": "_requestNumber",
					"type": "uint256"
				},
				{
					"internalType": "uint256",
					"name": "_ownerCnic",
					"type": "uint256"
				},
				{
					"internalType": "uint256",
					"name": "_buyerCnic",
					"type": "uint256"
				},
				{
					"internalType": "address",
					"name": "_landinspectorWallet",
					"type": "address"
				}
			],
			"name": "approveTransferRequest",
			"outputs": [],
			"stateMutability": "nonpayable",
			"type": "function"
		},
		{
			"inputs": [
				{
					"internalType": "address",
					"name": "_societyBlockAddress",
					"type": "address"
				},
				{
					"internalType": "uint256",
					"name": "_propertyId",
					"type": "uint256"
				},
				{
					"internalType": "uint256",
					"name": "_caseNumber",
					"type": "uint256"
				},
				{
					"internalType": "uint256",
					"name": "_verficationOTPCode",
					"type": "uint256"
				}
			],
			"name": "executeReverseCase",
			"outputs": [],
			"stateMutability": "nonpayable",
			"type": "function"
		},
		{
			"inputs": [
				{
					"internalType": "address",
					"name": "_landInspectorWallet",
					"type": "address"
				},
				{
					"internalType": "uint256",
					"name": "_id",
					"type": "uint256"
				}
			],
			"name": "removeLandInspector",
			"outputs": [],
			"stateMutability": "nonpayable",
			"type": "function"
		},
		{
			"inputs": [
				{
					"internalType": "uint256",
					"name": "_propertyId",
					"type": "uint256"
				},
				{
					"internalType": "uint256",
					"name": "_cnic",
					"type": "uint256"
				},
				{
					"internalType": "uint256",
					"name": "_sharesPercentage",
					"type": "uint256"
				},
				{
					"internalType": "uint256",
					"name": "_propertyTokensAmount",
					"type": "uint256"
				},
				{
					"internalType": "string",
					"name": "_areaName",
					"type": "string"
				}
			],
			"name": "transferNewProperty",
			"outputs": [],
			"stateMutability": "nonpayable",
			"type": "function"
		}
	]
}